S02B00006275696C642F64656275672F6669726D776172652D7468756E646572626F6172642D73656E73652D5B
S214000000008000209D1D0000991D0000991D000025
S214000010991D0000991D0000991D0000991D000003
S214000020991D0000991D0000991D0000991D0000F3
S214000030991D000044C60300AD980000991D0000FD
S214000040991D00007DA20300991D0000991D000067
S214000050E59A0300D5A2030089A20300A1A203002B
S21400006081A203005525000035260000991D0000DA
S214000070A59A0000B19A0000991D0000991D000085
S214000080991D0000991D000051260000991D0000D2
S214000090991D0000991D0000991D0000991D000083
S2140000A0991D0000991D0000991D0000991D000073
S2140000B0D9A2030085A203003169000015A303003E
S2140000C0991D0000798A0300991D0000991D000003
S2140000D0991D0000991D0000991D0000991D000043
S2140000E0991D0000991D0000991D0000991D000033
S2140000F0991D0000991D0000991D0000991D000023
S214000100991D0000991D0000991D000010B5054CB2
S214000110237833B9044B13B10448AFF300800123AE
S214000120237010BD0C8C002000000000587E0400D8
S21400013008B5034B1BB103490348AFF3008008BD65
S21400014000000000108C0020587E0400A3F5803AC2
S214000150704700BF174B002B08BF134B9D46FFF799
S214000160F5FF00218B460F461348144A121A1DF05D
S21400017087FE0E4B002B00D098470D4B002B00D06F
S21400018098470020002104000D000D48002802D0EA
S2140001900C48AFF300801DF0B7FD200029001BF0CF
S2140001A03FFE1DF08BFD00BF0000080000000000B1
S2140001B000000000008000200C8C0020C8B3002047
S2140001C0000000000000000009490B6800224BB147
S2140001D0834204D1436A4AB15362012070471A46EB
S2140001E05B6AF4E70028F5D0184670470B60F4E722
S2140001F0288C002070B5104D2B681BB10F4B1C6867
S214000200002604B970BD94F8283093B103F095F831
S2140002102B6884F82860013B2B6003F094F894F870
S214000220293013B92046FFF7CFFFD4E9073120461F
S2140002309847646AE5E700BF2C8C0020288C0020D5
S214000240034B1B68002B0CBF01200420704700BF27
S2140002502C8C0020024B1868B0FA80F040097047DA
S2140002602C8C00200F207047082808B51BD010DC07
S214000270022806DC002806DD0123042209210520C9
S21400028015E00428F8D010489F2102F0EFF90E2060
S21400029010E020280FD0402811D01028F3D10123D9
S2140002A004220E21EBE7012304220A21184603F05C
S2140002B027FE002008BD012304220821DFE70123D2
S2140002C004220A21DBE700BFA8C5030008B50748DB
S2140002D0012102F06BFA09F011FB2020FFF7C4FFA2
S2140002E0BDE808404020FFF7BFBF00BF00350A004A
S2140002F00148012102F05ABA00350A00014B0822D3
S214000300DA66704700A00046014B0822DA6670479E
S21400031000A000440020704730B5284D0FCD89B0AE
S21400032001AC0FC495E8070084E807000124244BBD
S2140003302448039321468DF8124002F037FA2146EE
S214000340214802F033FA2146204802F02FFA002313
S21400035019460422022003F0D3FD2246214600233C
S214000360022003F0CDFD022108460023042203F0FC
S214000370C7FD2346164C04220321022003F0C0FDCD
S214000380204604F07FFC204601A904F01BFD0B2349
S2140003906367A36F23F01F2323F01F03A367A36FD6
S2140003A043F49053A367A36F43F01203A367A36FAE
S2140003B0002043F09053A36709B030BDFCC503008E
S2140003C0A05A3200404105000072040000350A00C1
S2140003D0000C014038B50C4D04467F212846FFF737
S2140003E093FF04F09BFD284604F088FD2101284673
S2140003F001F0F00104F092FD284604F07FFDBDE810
S2140004003840FFF77BBF00BF000C014070B50546C3
S21400041065F07F05C0F3C71014460E46FFF7DAFFF7
S214000420E9B20D480C4DFFF76FFF04F077FD0A4860
S21400043004F064FD2644B44203D1BDE87040FFF7E3
S2140004405DBF0021284604F069FD284604F056FDED
S21400045004F8010BEFE700BF000C014013B504469B
S2140004600DF1070201214FF48A70FFF7CFFF9DF8C8
S214000470073003F00603062B08D8DFE803F004076E
S2140004800A070D0710004FF062532360002002B0E9
S21400049010BD4FF06453F8E74FF06653F5E74FF0A2
S2140004A06853F2E71FB5044601A8FFF7D7FF02AA74
S2140004B006212D20FFF7AAFFBDF80830DDED016A02
S2140004C0DBBA07EE103AB8EEC77ABDF80A3027EE68
S2140004D0267ADBBA84ED007A07EE103ABDF80C30C7
S2140004E0DBBA07EE903AB8EEC77AF8EEE77A27EE70
S2140004F0267A67EEA67A002084ED017AC4ED027AA9
S21400050004B010BD13B504460DF10702012140F2F8
S2140005100110FFF77BFF9DF8073003F00603062B5C
S21400052007D8DFE803F0040609060B060D00054BA6
S2140005302360002002B010BD034BF9E7034BF7E73A
S214000540034BF5E70000FA3B00007A3C0000FA3C5B
S21400055000007A3D1FB5044601A8FFF7D3FF02AAA4
S21400056006213320FFF752FFBDF80830DDED016AA3
S214000570DBBA07EE103AB8EEC77ABDF80A3027EEB7
S214000580267ADBBA84ED007A07EE103ABDF80C3016
S214000590DBBA07EE903AB8EEC77AF8EEE77A27EEBF
S2140005A0267A67EEA67A002084ED017AC4ED027AF8
S2140005B004B010BD13B5044601AA04211920FFF7A4
S2140005C025FF019B2360002002B010BD07B5012166
S2140005D00DF107021A20FFF719FF9DF8070000F03B
S2140005E0010003B05DF804FB08B5024601210020B7
S2140005F0FFF70CFF002008BD70B50E4C0546C0F393
S214000600C7100E46FFF7E6FE05F07F012046FFF70F
S2140006107BFE04F083FC204604F070FC3146204646
S21400062004F07CFC204604F069FCBDE87040FFF74F
S21400063065BE00BF000C014008B580210620FFF70C
S214000640DBFF642005F0BEFF002008BD07B5FFF7FE
S21400065063FEFFF7F1FF10210320FFF7CDFF0DF13A
S214000660070201210020FFF7D1FE9DF80730E02B9E
S21400067001D0EA2B0ED101210620FFF7BDFF1E2078
S21400068005F0A0FF0F20C021FFF7B6FF002003B043
S2140006905DF804FB1020FAE713B504460DF10702D7
S2140006A001214FF48A70FFF7B1FE9DF8071004F0A1
S2140006B0060421F0060121434FF48A708DF80710D6
S2140006C0FFF79AFF002002B010BD13B504460DF1E7
S2140006D00702012140F20110FFF798FE9DF807106F
S2140006E004F0060421F00601214340F201108DF8C3
S2140006F00710FFF781FF002002B010BD00000000C9
S21400070013B51CF0FFFC02460B461BA1D1E9000105
S2140007101CF07AFE1A4B00221CF094FB1DF02CF8FD
S2140007209FED187A07EE900AF4EEC77AF1EE10FA0B
S2140007301FDCF5EEC07AF1EE10FA01D5DFED127A85
S214000740FCEEE77A4FF48070CDED017A9DF8044018
S2140007502146FFF751FF601C1CF0C2FC02460B4608
S21400076005A1D1E900011CF04FFE1DF005F802B00E
S21400077010BDF0EE477AE3E70000000000949140D9
S2140007800000F03F00007F43000000000000000073
S21400079010B51CF0B7FC02460B461DA1D1E90001BE
S2140007A01CF032FE1C4B00221CF04CFB1CF0E4FF3D
S2140007B09FED1A7A07EE900AF4EEC77AF1EE10FA79
S2140007C023DCF5EEC07AF1EE10FA01D5DFED147AEF
S2140007D0FCEEE77A4FF4887017EE901A8CB2C1F3ED
S2140007E00721FFF709FFE1B240F21110FFF704FFFF
S2140007F0601C1CF075FC02460B4605A1D1E9000101
S2140008001CF002FE1CF0B8FF10BDF0EE477ADFE7E2
S21400081000000000009491400000F03F00F07F458B
S2140008200000000010B50446FFF76AFF2046FFF7F9
S214000830AFFF002010BD13B504460DF107020121DD
S21400084040F20110FFF7E2FD9DF8071004F03904AE
S21400085021F03901214340F201108DF80710FFF70F
S214000860CBFE002002B010BD13B504460DF1070202
S21400087001214FF48A70FFF7C9FD9DF8071004F0B8
S214000880390421F0390121434FF48A708DF807109E
S214000890FFF7B2FE002002B010BD13B501210446DA
S2140008A00DF107020620FFF7B1FD9DF807104CB1C9
S2140008B041F0400106208DF80710FFF79DFE00204E
S2140008C002B010BD01F0BF01F4E708B5002814BF60
S2140008D0302100210520FFF78FFE002008BD73B5EC
S2140008E004460E46154601210DF107020620FFF7C5
S2140008F08DFD002C14BF002438240EB944F00704E4
S2140009009DF807106DB101F0F70106208DF807106D
S214000910FFF772FE21460720FFF76EFE002002B0AA
S21400092070BD41F00801F0E773B505460E46144663
S21400093001210DF107020620FFF768FD0DB906B983
S214000940F4B10020FFF7A9FF0020FFF7BEFF224604
S21400095031462846FFF7C3FF322005F033FE01205C
S214000960FFF7B3FF9DF8073043F020038DF80730FC
S2140009709DF807100620FFF73FFE002002B070BD6E
S2140009802046FFF7A2FF9DF8073023F02003EDE78F
S21400099010B5002914BF0821002104461020FFF7D7
S2140009A02BFE21461120FFF727FE002010BD000079
S2140009B02DE9F043012185B0002280460846FFF766
S2140009C08EFF7F48FFF72EFF2920FFF734FF002019
S2140009D0FFF77BFE6846FFF795FD322005F0F2FD37
S2140009E040210320FFF708FE0F216920FFF704FED1
S2140009F00E216720FFF700FE0F216820FFF7FCFDA1
S214000A0000216820FFF7F8FD40210320FFF7F4FDE2
S214000A10052005F0D7FD01AA02217020FFF7F6FC9D
S214000A20BDF804305BBA9BB2B3F57F6FF0D30021FC
S214000A306720FFF7E1FD01AA02217020FFF7E6FC20
S214000A40BDF804404FF0000964BAA4B20C274D4626
S214000A50B4FBF7F74E464C461FFA89F3BB42C0F08C
S214000A60928096FBF7F695FBF7F507EE906A94FBF7
S214000A70F7F49DED007AF8EEE77A01AA67EE877A3A
S214000A800221C8ED007A07EE905AF8EEE77A40F2B7
S214000A90031067EE877AC8ED017A07EE904AF8EE03
S214000AA0E77A67EE877AC8ED027AFFF7AFFC9DF922
S214000AB004309DF8058001AA022140F2051048EA9C
S214000AC00328FFF7A3FC9DF904309DF8057001AAE2
S214000AD0022140F2071047EA0327FFF797FC002E93
S214000AE09DF904209DF80530B8BF0336002DB8BF29
S214000AF00335002C43EA0223B8BF0334A7EBA50551
S214000B00A3EBA404A8EBA6062B12C6F307218DF8C8
S214000B10063040F2031023128DF808308DF80410CA
S214000B208DF805608DF807508DF80940FFF764FDD5
S214000B309DF805104FF48270FFF75EFD9DF80610D5
S214000B4040F20510FFF758FD9DF807104FF483702C
S214000B50FFF752FD9DF8081040F20710FFF74CFD16
S214000B609DF809104FF48470FFF746FD002103201E
S214000B70FFF742FD002211461046FFF7B0FE0020A8
S214000B8005B0BDE8F08301AA0C217220FFF73EFCF9
S214000B909DF90A209DF80B3043EA02231E449DF976
S214000BA00C209DF80D3043EA02231D449DF90E20CB
S214000BB09DF80F3043EA02231C4409F101094BE774
S214000BC00080894400234FF07E52026043608360B9
S214000BD0C360026143618361C3610262704710B5FE
S214000BE091ED027A92B0F1EE477ACDED017A8DED75
S214000BF0037AD1ED017A91ED007ACDED027A0023E9
S214000C000446F1EE476AF1EE677A6A46014609A89D
S214000C10009304930893CDED056ACDED067A8DED2D
S214000C20077A00F039FB204609AB04F12402D0ED28
S214000C30007A93ED007A77EE877A93ED017AC0ED2D
S214000C40007AD0ED017A77EE877A93ED027AC0EDDE
S214000C50017AD0ED027A77EE877A0C3040ED017A91
S214000C60904203F10C03E2D112B010BD30B52DED69
S214000C70028B00F10C058DB02946044600F086FB79
S214000C8007EE100AFEEE007A67EE277A294617EE80
S214000C90902A03A8CDED017A00F033FB019A214695
S214000CA006A800F02EFB03A92246084600F053FBD8
S214000CB006A92A46084600F04EFB06AA03A909A87C
S214000CC000F076FB03A9084600F060FB07EE900AEA
S214000CD0B0EE088A78EE677AF6EE008A67EEA87AB3
S214000CE003A917EE902A204600F00BFB06A908463B
S214000CF000F04CFB07EE900A78EE677A06A967EEDE
S214000D00A87A284617EE902A00F0FBFA09A90846AA
S214000D1000F03CFB07EE900A38EE678A09A968EEF9
S214000D20287A04F1180017EE902A00F0EAFA0DB0BF
S214000D30BDEC028B30BD38B504460D46016AC0696D
S214000D4020F02AFD2860A06920F0F2FC07EE900A49
S214000D50F1EE677AC5ED017A2168E06820F01CFDA7
S214000D60A86038BD0023002243628362C362036327
S214000D7043638363C2630364C365036643660360B9
S214000D8043608360C360036143618361C361036240
S214000D9043648364C364036543658366C36603670D
S214000DA0704700000000000007EE901AF7EE006A99
S214000DB086EEA77A10B50446016580ED157A0846DA
S214000DC01CF0A0F902460B4605A1D1E900011CF073
S214000DD01BFB1CF0D1FCA06510BD00BFAFF300806C
S214000DE0399D52A246DF913F0165704791ED007A2A
S214000DF0D0ED0C7AC36B77EE877A0133C0ED0C7AB0
S214000E0091ED017AD0ED0D7A77EE877AC0ED0D7A06
S214000E1091ED027AD0ED0E7AC36377EE877AC0ED55
S214000E200E7A704710B586B00446826D684600F0AC
S214000E3068FA04F15C02694603A800F08CFA03A97C
S214000E402046FFF7CCFE2046FFF710FF04F16801AE
S214000E502046FFF770FF06B010BD0000000000003F
S214000E602DE9F0432DED048B00F15C0590ED099A19
S214000E7090ED0A8AD0ED0B8A85B00446884628464F
S214000E8017461E4600F038FAB8F1000F59D0606ACF
S214000E901CF038F948A3D3E90023804689461CF0A5
S214000EA00FFC00284DD046A3D3E900234046494610
S214000EB01CF0FCFB002844D0A06A1CF023F93EA3DB
S214000EC0D3E90023804689461CF0FAFBC8B33CA34E
S214000ED0D3E90023404649461CF0E8FB88B3F1EE10
S214000EE0497AF5EEC08A17EE908AF1EE10FAF1EE26
S214000EF0487A17EE900A04F1680927DB20F018FC00
S214000F000190404620F014FC07EE900A4A46F1EEA7
S214000F10677A284601A9CDED027A039600F028FAF2
S214000F20284600F0DCF90FB900236366D4ED147A86
S214000F30B6EE007AC7EE277A284617EE901A00F02B
S214000F40F5F905B0BDEC048BBDE8F08320F0F0FBAE
S214000F501CF0D8F802460B461BA1D1E900011BF095
S214000F6071FF1CF009FC0190404620F0E1FB07EE03
S214000F70900A3046F1EE677ACDED027A1CF0C2F8A0
S214000F8011A3D3E900231BF05FFF1CF0F5FB0390D1
S214000F9001A800F0A4F94A4601A9284600F0E8F99D
S214000FA0284600F09CF9D4ED187AF1EE677AC4ED85
S214000FB0187AB8E7AFF30080C139234A7B83EFBFC6
S214000FC0C139234A7B83EF3F182D4454FB21094047
S214000FD010B50446243000F08FF904F1300000F01C
S214000FE08BF90023E36304F1440000F085F904F173
S214000FF0680000F081F904F15C0000F07DF92046FD
S214001000BDE81040FFF7DEBD37B5044600F05CF8DB
S2140010100128054628D104F124010846019100F074
S214001020B7F801992046FFF7E1FE04F144010846AF
S214001030019100F0BBF8D4ED117A0199F1EE677AD0
S214001040C4ED117AD4ED127AF1EE677A2046C4ED3B
S214001050127AFFF7E7FE002300222946204603B057
S214001060BDE83040FFF7FCBE03B030BD7FB5104D85
S214001070104802262E70FFF775FEFFF7E7FA0446C3
S21400108080B90DF10300FFF7AFFA044650B9032309
S21400109001A82B70FFF78CFC044618B92E7020466A
S2140010A004B070BDFFF736F900232B70F7E700BFDA
S2140010B0388C0020408C0020024B00221A70FFF76C
S2140010C029B900BF388C0020014B1878704700BF44
S2140010D0388C002073B501211D4D1E4E02230022C0
S2140010E0044608462B70FFF7FAFB2046FFF708FB7E
S2140010F030602046FFF74CFB174C20600020FFF7BF
S214001100B3FB1920FFF797FB0020FFF7C5FA002076
S214001110FFF7DBFA322005F055FA00210120FFF731
S21400112037FC012100220846FFF7FEFB01A8FFF767
S21400113041FA21680948FFF757FE31680748FFF76C
S21400114033FE0648FFF744FF01232B7002B070BD44
S214001150388C0020B48C00203C8C0020408C002072
S214001160002110B50846FFF713FCFFF7A5FFFFF7B1
S2140011707DFF034B04461868FFF7ACFF204610BD02
S214001180B48C00200148FFF73FBF00BF408C002012
S214001190054A1278012A04D000220260426082606A
S2140011A07047FFF77FB900BF388C0020054A1278D9
S2140011B0012A04D000220260426082607047FFF776
S2140011C0C9B900BF388C002008B5094B1B78012B25
S2140011D001D0002008BDFFF7F9F9064A136801336D
S2140011E013600028F5D0044A136801331360F1E752
S2140011F0388C0020308C0020348C0020000000004A
S2140012002DE9F0471EA7D7E900670FF27C09D9E958
S21400121000898246DAF800001BF074FF32463B462F
S21400122004460D461CF04CFA98B90FF26409D9E949
S214001230008915A7D7E90067DAF800001BF062FFFF
S21400124042464B4604460D461CF026FA60B9BDE8F9
S214001250F08742464B46204629461BF0F3FD1CF01D
S2140012608BFACAF80000D5E732463B4620462946A8
S2140012701BF0EAFD1CF080FACAF80000DCE700BFAD
S214001280182D4454FB210940182D4454FB211940C5
S214001290182D4454FB2109C070B501F1240502F154
S2140012A00C0613460446F3EC017A91ED006AD1ED84
S2140012B0016A93ED027A67EE867A46EE877AB34243
S2140012C0D1ED026A93ED057A46EE877AE4EC017A70
S2140012D0E9D10C318D4200F10C00E2D170BD10B5A1
S2140012E00446FFF78DFF201DFFF78AFF04F1080074
S2140012F0BDE81040FFF784BF0023036043608360AF
S214001300704791ED007A07EE902A27EE277A80ED57
S214001310007A91ED017A27EE277A80ED017A91ED39
S214001320027A67EE277AC0ED027A704707EE901AC7
S21400133090ED007A27EE277A80ED007A90ED017A1C
S21400134027EE277A80ED017A90ED027A67EE277A0B
S214001350C0ED027A704701F10C03F1EC017AB2ECB1
S214001360017A77EE877A9942E0EC017AF5D17047F8
S21400137001F10C03F1EC017AB2EC017A77EEC77A50
S2140013809942E0EC017AF5D170470000DFED077A6C
S21400139000F10C03F0EC016AB1EC017A984246EEDB
S2140013A0877AF7D117EE900A704700BF000000005A
S2140013B092ED016AD1ED027AD1ED016A92ED027AE0
S2140013C067EE867A56EE877AC0ED007A92ED026A6C
S2140013D0D1ED007AD1ED026A92ED007A67EE867A58
S2140013E056EE877AC0ED017AD1ED017A92ED006A69
S2140013F0D1ED006A92ED017A67EE867A56EE877A2C
S214001400C0ED027A70470000F0B54B1E012B8BB082
S21400141007460E4676D83C4D0FCD01AC0FC40FCD17
S2140014200FC42B6839482360012101F0BFF9384802
S214001430384C012101F0BAF90023012207210220CD
S21400144002F05EFD002304220821022002F058FD6F
S214001450042200230921022002F052FD05238DF804
S21400146004300123012E01A920468DF818304FEADA
S21400147087174FF4407308BF8DF82360ADF820300F
S214001480039703F0FFFC244BA3670D23636700F06C
S214001490E5FF2248002100F08BFF044618B1012426
S2140014A020460BB0F0BD1E4AD37823F03C0343F031
S2140014B03403D370D37C23F03C0343F03403012E73
S2140014C0D37412D10146174800F072FF0028E6D107
S2140014D0154AD37823F03C0343F03403D370D37C0F
S2140014E023F03C0343F03403D374104B104A1E70B1
S2140014F0002313700F4A13700F4A13700F4B01220C
S2140015001A70CDE72124CBE718C6030000350A0081
S21400151000520400000401400B000B0BBC8C0020A2
S21400152004800020C08C002024800020C68C002070
S214001530C78C0020E08C0020C58C0020C48C0020C6
S214001540184B1B7873B5002B28D0174D2C783CBB56
S214001550164A174E11681369164831400143334046
S214001560116003431449154891601361916100941A
S214001570134B1449006800F0A7FF134B1B78012B90
S21400158007D112480094124A12490068234600F018
S2140015909BFF01232B70002002B070BD1120FBE7DB
S2140015A00220F9E7C48C0020C58C002004800020AF
S2140015B00F80FFCFF07F0030D48C0020BC8C002042
S2140015C00917000044800020C68C0020C08C002034
S2140015D02480002054800020184B1B782DE9F04111
S2140015E004460D4616461BB3154B1B7813BB154F0A
S2140015F03B78FBB9DFF8608098F800304B43B3F5D2
S214001600006F19D8104B1B780BB9FFF799FF98F8A5
S21400161000000E4B684318600D4B1C6004EB400442
S2140016205C600C4B1E6001233B700020BDE8F0811F
S2140016301120FBE70220F9E72120F7E7C48C002001
S214001640C78C0020E08C0020C58C0020CC8C0020AD
S214001650D88C0020B88C0020C68C002010B50C4C0E
S214001660237893B10B4B186800F054FF0A4B1B7895
S214001670012B03D1094B186800F04CFF084B0020E3
S2140016801870084B2070187010BD0220FCE700BFD1
S214001690C58C0020BC8C0020C68C0020C08C00208E
S2140016A0C78C0020E08C002038B5134D0024FFF7CF
S2140016B0D5FF284603F0E6FA23462246EC650821C5
S2140016C0022002F01DFC234622460721022002F0DB
S2140016D017FC224609212346022002F011FC074B84
S2140016E0186800F095FE064B186800F091FE054B52
S2140016F020461C7038BD00BF00040140BC8C002092
S214001700C08C0020C48C0020F8B53B4D2B78002BF5
S21400171042D03A483A4E11F0010F00F1100308BFCC
S2140017201946384B32681C6818BF0146A2422CD2B4
S214001730CB786FF30513CB70334B1B6803EB420378
S2140017408B60A31AB3F5006F0B8817D940F2FF74AD
S21400175064F30E1302F500620B803260C37803F068
S2140017603003302B08D1C37C03F03003302B03D179
S21400177000232B70FFF772FF0120F8BD671EBA1A10
S21400178062F30E130B803460E8E70A681F4B1343BE
S2140017900B601F4B8B60E1E71E4B1B78002BEBD0DA
S2140017A01648C94301F0010300EB03141D01E2785B
S2140017B0C2F30112032A0FD1124A46591268013A9F
S2140017C0C2F30A01144A324042EA01124251134A55
S2140017D052F82330A360CFE7114A1268002ACBD014
S2140017E01049084809780068B0FBF1F10B4850F83A
S2140017F023009047C0E700BFC78C0020048000206D
S214001800D08C0020CC8C0020C88C0020F07F0030CC
S214001810D48C0020E08C00200F80FFCFD88C0020D6
S214001820B88C0020C68C002008B51BF06BFC10A3FB
S214001830D3E900231BF0E8FD1BF056FF002814D068
S2140018400346B8BF00F10F03C3F307130022012BB2
S21400185007D111098B4090FBF3F010381043C0B24B
S21400186008BD10325B08D2B2F1E77F20F8E700BF70
S2140018707B14AE47E17A743F10B50C461BF042FC71
S21400188016A3D3E900231BF0BFFD134B00221BF069
S214001890DBFA1BF029FF14B10A2390FBF3F0B0B17A
S2140018A0B0F5E06FA8BF4FF4E0600828B8BF082086
S2140018B0C0F3C7020023012A05D1DA081041083810
S2140018C01843C0B210BD08335208DBB2F3E73F201E
S2140018D0F8E700BFAFF300800000E03F7B14AE47A0
S2140018E0E17A743F00B589B00B4B039301238DF862
S2140018F00710ADF81430ADF81C3003A90DF107033E
S2140019000493069200F0AAFB002814BF31200020A2
S21400191009B05DF804FB00BF6000040073B50C4618
S2140019200DF10702C1210546FFF7DCFFB0B99DF8AF
S2140019300760330203F4FE4323800DF10702C22141
S2140019402846FFF7CFFF48B922889DF80730134393
S214001950A3F580432380F30908BF362002B070BD8C
S21400196000B589B00D4B03930123ADF81430ADF8E4
S2140019701C300DF107038DF80710049303A90DF131
S21400198006038DF80620069300F068FB002814BFB7
S2140019903120002009B05DF804FB00BF600008009D
S2140019A013B5C9210DF107020446FFF79BFFE8B9FE
S2140019B09DF8072022F0030242F00102C9212046CA
S2140019C08DF80720FFF7CCFF80B90DF10702C42180
S2140019D02046FFF787FF48B19DF80720C42102F094
S2140019E0F80220468DF80720FFF7BAFF02B010BDB8
S2140019F073B50E461546E3210DF107020446FFF7C0
S214001A0071FFA0B99DF80730DB0712D43246E121FA
S214001A102046FFF7A5FF50B90222E3212046FFF734
S214001A209FFF20B92A46E2212046FFF75BFF02B05F
S214001A3070BD0420FBE700007FB50F4B0546186815
S214001A409B880290ADF80C3002AE272421460DF19B
S214001A50070201342846E4B2FFF7CAFF48B99DF8EA
S214001A60072016F8011B2846FFF77AFF08B92D2C29
S214001A70ECD104B070BD00BF3CC6030073B514467D
S214001A800DF1070205460E46FFF72CFF40B99DF8FC
S214001A9007203146224328468DF80720FFF760FFCF
S214001AA002B070BD73B516460DF1070204460D462A
S214001AB0FFF718FF48B99DF80730294623EA0602C3
S214001AC020468DF80720FFF74BFF02B070BD0000E0
S214001AD010B50A4A86B0002301A9CDE90123ADF866
S214001AE00C3000F0BBFA044628B90A2004F05CFF6C
S214001AF0204606B010BD3120FBE700BF60000100A5
S214001B0038B504460D46FFF7E3FF002851D1022200
S214001B10C4212046FFF7B2FF00284AD1D5ED007A4F
S214001B20F5EE407AF1EE10FA1DD195ED017AB5EE9C
S214001B30407AF1EE10FA16D12B7AA3B96B7A93B9E4
S214001B400822C4212046FFF7ADFF90BB0122C92121
S214001B502046FFF793FF60BB20460222BDE83840D0
S214001B60C421FFF79FBF17EE900AFFF75DFE6B7A62
S214001B70002B0CBF0022802200F07F000243C6210B
S214001B802046FFF7EDFEA0B901466868FFF774FE31
S214001B902A7A00F03F0040EA8212D2B2C7212046DD
S214001BA0FFF7DEFE28B90822C4212046FFF766FFAD
S214001BB0CBE738BD73B504460D461646FFF788FFDB
S214001BC000BB0DF10702C0212046FFF78BFEC8B907
S214001BD09DF8073003F00F021B093270C4212B70EA
S214001BE00DF107022046FFF77DFE58B99DF8072045
S214001BF022F0070242F00202C42120468DF8072098
S214001C00FFF7AEFE02B070BD13B50446012004F027
S214001C10D9FC2046FFF75CFF60B90DF107020DF115
S214001C2006012046FFF7C6FF20B99DF80630012BB7
S214001C3018BF102002B010BD73B504460D461646F8
S214001C40FFF746FF002855D10DF10502C4212046B6
S214001C50FFF748FE00284DD19DF8052022F00F0220
S214001C6042F00A02C42120468DF80520FFF778FED0
S214001C7000283FD14422CD212046FFF771FEC8BB85
S214001C809DBB0DF10502C4212046FFF72BFE88BB45
S214001C909DF8052022F00F0242F00C02C4212046D7
S214001CA08DF80520FFF75CFE20BB0DF10502C42170
S214001CB02046FFF717FE9DF90530002BF4DBC8B968
S214001CC00DF106012046FFF729FE98B9BDF906304A
S214001CD0C3EB431203EB820375B10A2293FBF2F3C4
S214001CE020463360FFF75CFE04E02046FFF7A4FEC4
S214001CF00028C6D002B070BD6422EFE713B545F2E7
S214001D0014039942144698BF002101AA88BF0121F6
S214001D10FFF792FFDDED017ADFED046AF8EEE77A71
S214001D2087EEA67A84ED007A02B010BD00007A44F1
S214001D30002303607047000038B504460D4601B125
S214001D4018B90448372100F091FC23682B60256001
S214001D5038BD00BF84C6030007B501228DF8070012
S214001D600DF10701002003F081FA03B05DF804FBD3
S214001D700146002003F0B2BA05490A681318054860
S214001D8083428CBF4FF0FF320B601046704700BF97
S214001D906480002000000420FEE7000008B500F084
S214001DA069F8064B0649074A8B4201D3FEF7D2F97B
S214001DB052F8040B43F8040BF6E700BF008000203F
S214001DC00C8C0020607E04000048704700F049023A
S214001DD0104AD2F8943003F00703023B032B13D8C3
S214001DE0DFE803F00C14020E0B4B1B68D2F8000160
S214001DF0C0F304200130B3FBF0F07047074BF4E764
S214001E00074B1B685B08F1E7054BEEE74FF4004312
S214001E10ECE700BF00400E40748000206C8000207D
S214001E207080002008B5FFF7D3FF054BD3F80831C4
S214001E30C3F308230133B0FBF3F0024B186008BD70
S214001E4000400E4068800020014B1868704700BFB5
S214001E506C800020054B1860054BD3F8943003F0D7
S214001E600703022B01D1FFF7DDBF70476C8000200F
S214001E7000400E40044B054A9A60D3F8882042F48E
S214001E807002C3F88820704700ED00E000000000F4
S214001E904FF4004070474FF47A707047014B186853
S214001EA0704700BF748000202DE9FF47044618B92C
S214001EB062482C2100F0DAFB6148012100F076FC34
S214001EC02368604A93420BD002F58062934200F08A
S214001ED08B805A48422104B0BDE8F04700F0C6BBEC
S214001EE05948DFF87491012100F060FC617920798F
S214001EF001230A2202F004F8E179A07901230A22DC
S214001F0001F0FEFF09264FF001083027257994F8E6
S214001F1005A0002D6AD0012D6BD0022D6CD0032DAC
S214001F206DD0042D0FD0052D6CD0AB1F012B0AD918
S214001F30082D6AD0092D6AD00A2D04D1072323FA6A
S214001F400AF3DA0704D44FF47F71484600F08EFB9C
S214001F503E4A7D4308FA0AF35351642004F024FDF8
S214001F60257994F805A0002D54D0012D55D0022DCA
S214001F7056D0032D57D0042D0FD0052D56D0AB1FAD
S214001F80012B0AD9082D54D0092D54D00A2D04D17E
S214001F90072323FA0AF3DB0704D440F22B41484612
S214001FA000F064FB2A4A7D4308FA0AF35351642082
S214001FB004F0FAFC013EA9D1206803234364238978
S214001FC05BBA9BB2836440F20113ADF8003023691C
S214001FD00293E36801936946237D8DF80C3002F086
S214001FE08BF804B0BDE8F0871A487AE740F2FF3372
S214001FF0A5E74FF6C073A2E740F6FF739FE74FF4DE
S2140020007F439CE74FF6FF7399E70F2397E74FF45C
S214002010404394E740F2FF33BBE74FF6C073B8E7A0
S21400202040F6FF73B5E74FF47F43B2E74FF6FF7312
S214002030AFE70F23ADE74FF44043AAE7CAC6030055
S2140020404041050000C00040008204000CA000448F
S2140020500CA000460092040018C7030038B50546D9
S21400206002F07AF9044C012801D1013C00D138BDB8
S214002070284602F06DF8F6E7E1930400D0E9000385
S2140020801847037B0B807047037A01229A40036946
S21400209003F1C0631A637047037A01229A4003690A
S2140020A003F180631A63704703692DE9F041DE6926
S2140020B087690173FFF7F0FF0569104B90F80880F9
S2140020C0013FB6FBF7F7067B9D42044607FB06F684
S2140020D00BD003F580639D4207D0B6F5803F04D34E
S2140020E0074840F2FA2100F0C1FA05EB0815204631
S2140020F0EE66BDE8F041FFF7C7BF00BF00A0014095
S2140021005CC703002DE9F0410369684A934288B032
S21400211004460FD002F5806293420BD002F5E052DF
S214002120934207D002F58062934203D0604898211C
S21400213000F09CFA237A032B03D95D48992100F01E
S21400214095FA5C4B23605C4B63605C48012100F0B1
S2140021502DFB23695A4A93423FD039D8A2F5005244
S21400216093423CD002F5806293423AD050486821B0
S21400217000F07CFA11252846012100F017FB002309
S214002180CDE90133039303238DF80A3001238DF83C
S2140021900930022320698DF80530494B984222D039
S2140021A0484A4FF6FF73904208BF4FF0FF33A269CC
S2140021B0012A01D99A4219D94048002100F0F6FABE
S2140021C02846002100F0F2FA012008B0BDE8F081B0
S2140021D03C4A9342CAD13C4DCDE73C4DCBE73C4D03
S2140021E0C9E73C4DC7E74FF0FF33E0E7637B217A52
S2140021F0003B18BF012301AA8DF80E3002F040FC08
S2140022003548012100F0D2FAA17A637B607A042275
S21400221001F076FED4F81080237AE67ADF0001F02B
S21400222085F8D8F83420BE401F235640BB403340C4
S2140022305340C8F8343001F07DF8606930B1284664
S21400224000F042FC6369B0FBF3F00138A36926692D
S214002250013BB0FBF3F05843834238BF03461D46AC
S214002260174B9E420BD003F580639E4207D0B5F510
S214002270803F04D3194840F2894100F0F7F90D2257
S2140022800021F56104A81BF0FBFD012320698DF8F1
S214002290103004A902F094FB2046217BFFF704FFD0
S2140022A02046FFF7F9FE00208FE700BF00800140C0
S2140022B0A1C70300A92000008320000040410500BC
S2140022C000A0014000A401400032040000220400E7
S2140022D0000204000012040000350A005CC7030078
S2140022E010B504460068FFF70DFF012801D1012054
S2140022F010BD6068FFF706FF0128F8D0A068FFF75A
S21400230001FF01281CBF00232376F1E710B5044621
S2140023100068FFF7B9FE6068FFF7B6FEA068FFF733
S214002320B3FE0123237610BD10B504460068FFF700
S214002330B3FE6068FFF7B0FEA068FFF7ADFE0023AF
S214002340237610BD037E0BB9FFF7E0BFFFF7ECBFA7
S214002350007E704770B5044600681D460368164642
S2140023609847236860681B68314698472368A068CA
S2140023701B682946BDE87040184770B504460068DB
S2140023801D46436816469847236860685B68314672
S21400239098472368A0685B682946BDE870401847E0
S2140023A010B484690068A4465DF8044B60470000DA
S2140023B038B5124B1B780546DBB1E0B100F0BDFF27
S2140023C00F4A00231146147B54B92B601A0101EB07
S2140023D0031301258C501D7300F0B5FF204638BD51
S2140023E00133082B02F11002EDD100F0ACFF0548D6
S2140023F0F5E70548F3E70548F1E700BF648E0020DF
S214002400E48C0020048000F0028000F0018000F0E0
S2140024100D4B1B7810B5044693B1072812D800F070
S2140024208CFF0A4B03EB04131A7B2AB100241C739F
S21400243000F089FF204610BD00F085FF0448FAE74B
S2140024400448F8E70448F6E7648E0020E48C002091
S214002450068000F0028000F0018000F013B5164BF5
S2140024601868019000238DF8043000F066FF134BC7
S2140024701C7824B100F067FF114802B010BD01229D
S2140024801A7000F060FF0F4B1C731C7783F82C400B
S21400249083F83C4083F84C4083F85C4083F86C40FB
S2140024A083F87C4004230DEB03008DF8073001F021
S2140024B0ADFF2046E1E700BFF0C70300648E0020B2
S2140024C0038000F0E48C0020F8B50D4D2D7885B122
S2140024D0072810DC0B4D05EB00140601277B67B1BF
S2140024E0AB51069B63600025A56001F0D1FF28462E
S2140024F0F8BD0548FCE70548FAE70548F8E700BFD9
S214002500648E0020E48C0020028000F0018000F041
S214002510078000F00A4A127808B552B107280AD890
S214002520084A02EB00131B7B3BB102F037F8002091
S21400253008BD0548FCE70548FAE70548F8E700BF88
S214002540648E0020E48C0020028000F0018000F001
S214002550078000F02DE9F843DFF86480D8F8607053
S214002560D8F86C301F4000D5FEE7144CDFF85490C6
S21400257001260025374217D02368C8F868609BB14B
S214002580A16862680131A16028469847637B012BE9
S2140025900AD148B909EB45131A7B60F341021A7356
S2140025A01A7F60F341021A770135082D4FEA460676
S2140025B004F11004DED1BDE8F88300BFE48C0020EF
S2140025C000200E40648D002070B50D4E0446012597
S2140025D004B970BD94FAA4F3B3FA83F306EB0311BF
S2140025E005FA03F224EA02044A68002AF0D0D8B2B8
S2140025F00B7B13B189689047EAE79047E8E700BF8E
S214002600688E002008B5122000F0A0FE28B1084B06
S2140026104FF48022C3F880211A600A2000F096FE4C
S21400262028B1034B4FF48062C3F880211A6008BDBE
S21400263000E100E0054BD3F82804D3F81C24104032
S21400264000F05530C3F82404FFF7BEBF00A00040DA
S214002650054BD3F82804D3F81C24104000F0AA3009
S214002660C3F82404FFF7B0BF00A00040FEE7000058
S2140026700C4B984210D90C4B984210D902220123D9
S2140026800A490B640A49D1F8003123F0807343EA03
S2140026900263C1F80031704700221346F0E70122BA
S2140026A0FBE700BF0048E8010090D0030000C843E5
S2140026B000400E4038B5114B5B68114B00221C469B
S2140026C0C9B21D798D4202D11D68854212D20132EF
S2140026D0052A03F10803F4D10A4841F23851FFF7FE
S2140026E0C5FF032205494B6823F0407343EA0263A3
S2140026F04B6038BD04EBC2025279F3E700000E408F
S214002700ACC80300F4C703001F2810B5044604D95C
S214002710034840F24311FFF7A9FF0120A04010BD77
S21400272037C8030038B5074C41F67133256C23646F
S214002730FFF74AFB0021FFF7BDFF0DB1002323641E
S21400274038BD00BF00000E40044BDB6B5B0604D4B4
S214002750034AD2F8C830002BFBD1704700300E4039
S2140027600000C64308B5FFF7EFFF024B5868C0F3FA
S214002770014008BD00300E40044BD3F84421D20778
S21400278003D4D3F840211042FBD1704700400E40DE
S21400279038B5054C41F67133256C2364FFF78AFF84
S2140027A00DB10023236438BD00000E4038B5C0F3D9
S2140027B00323013B092B24D8DFE803F02A2D23232B
S2140027C0051619231C20154C0023C0F3043513B13D
S2140027D01846FFF7D1FF04F1424404F5801405EBD8
S2140027E0C404A400216038BD0D4C0123EDE70D4C58
S2140027F01023EAE70C4C4FF48033E6E70B4C00233B
S214002800E3E7BDE838400A4841F6D521FFF72EBF7A
S214002810084C0023D9E7084C0023D6E7B0400E400A
S214002820E0400E40E8400E40F0400E4050410E4062
S214002830F4C7030000400E40C0400E4008B5C0F389
S2140028400313013B092B60D8DFE803F0050B0F19D3
S2140028505F5F1F233C532E4BD3F80001C0F30420C8
S21400286008BD2B4BD3F81401F8E7294BD3F8000129
S214002870C0F300600130FFF747FF0138F0E7244B54
S214002880D3F80C01C0F30820EAE7214BD3F808017F
S214002890F8E7204B984209D01F4B98420CD041F6DF
S2140028A079411E48FFF7E2FE0020D9E7184BD3F81F
S2140028B0200100F00F00DEE7154BD3F82001C0F32F
S2140028C00110D8E7164B984208D003F5B01303F56D
S2140028D08053984206D041F69D41E2E70C4BD3F870
S2140028E02801ECE70A4BD3F82801C0F30120043096
S2140028F0C1E70C4B984205D1054BD3F8300100F0E8
S2140029000300ADE741F6AC41CBE741F6D141C8E75D
S21400291000400E408006160080162E00F4C7030006
S21400292090171A00A009140008B5FFF787FF0130BA
S21400293008BD000000F00F00013808B5072844D88D
S214002940DFE800F0040F1943232D4335264BD3F858
S214002950943003F00703023B052B3DD8234AD05C96
S21400296008BD214BD3F8803003F00703013B032B4F
S21400297034D81F4AF3E71C4BD3F8843003F0070320
S214002980013B032B2AD81B4AE9E7174BD3F88830BC
S21400299003F00703013B032B20D8174ADFE7124B4F
S2140029A01B6F13F0010F0CBF07200920D8E70E4B52
S2140029B0D3F85C3103F03003202B11D0302B11D02C
S2140029C0102B14BF01200720CAE70C4842F225014D
S2140029D0FFF74CFE0020C3E70520C1E70120BFE754
S2140029E00420BDE70820BBE700400E407DC803007A
S2140029F083C8030087C8030083C80300F4C7030026
S214002A0038B52C4B984205460AD02B4B984207D037
S214002A102A4B984204D02A4841F23861FFF726FE36
S214002A202846FFF787FF234B9D42044611D0224BD2
S214002A309D4212D0214B9D4213D1224BD3F88040A9
S214002A4004F00704042C2DD8DFE804F02A11151D25
S214002A5019001C4BD3F88440F2E71A4BD3F8884091
S214002A60EEE7174841F26761FFF700FEEAE7BDE8C8
S214002A703840FFF70DBABDE83840FFF70FBABDE89B
S214002A803840FFF708BAFFF7A3F90E4B0446D3F811
S214002A900001C0F300600130FFF736FEB4FBF0F42F
S214002AA0204638BD064841F2B961FFF7DFFD002435
S214002AB0F6E700BF030020000500240002001E0009
S214002AC0F4C7030000400E4038B500F47813B3F5A1
S214002AD0B01F05467FD02ED8B3F5402F69D011D849
S214002AE0B3F5802F54D006D843B1B3F5003F5AD083
S214002AF041F605411AE0B3F5202FF9D1BDE838407C
S214002B00FFF766B9B3F5801F00F0A280B3F5A01FEB
S214002B1057D0B3F5602FEBD15B48FFF70BFF0728C4
S214002B2000F096800928E9D041F2FA315748FFF7BD
S214002B309DFD002036E0B3F5381F5AD013D8B3F504
S214002B40001F5FD00AD8B3F5D01F5DD0B3F5F01FD5
S214002B50CED14F48BDE83840FFF752BFB3F5101F3F
S214002B60C6D14C48F6E7B3F5481F57D0B3F5781FE3
S214002B7000F08280B3F5401FBAD14748FFF740FF08
S214002B80464B0446D3F82801C0F3012004302BE05E
S214002B90FFF71EF9414BD3F80C31C3F3082301337A
S214002BA0B0FBF3F038BDFFF713F93C4BD3F8083110
S214002BB0F3E7FFF70DF9394BD3F81431C3F30423C9
S214002BC0EDE73448FFF71CFF344BD3F8303103F001
S214002BD00303D840E6E72E48FFF712FF2F4B0446C4
S214002BE0D3F8200100F00F00FFF78EFDB4FBF0F0E5
S214002BF0D8E72748FFF704FF284BD3F82031C3F364
S214002C000113E6E72448A5E72348FFF7F9FE234B20
S214002C100446D3F82801C0F30110E5E72048FFF783
S214002C2089FE0138072824D801A353F820F000BFF6
S214002C30332B0000732C0000732C0000572C000070
S214002C40732C0000732C0000512C00005F2C000039
S214002C50144B1868A6E7BDE83840FFF7F5B8FFF74D
S214002C60B7F80E4BD3F80031C3F3042303FB000080
S214002C7098E741F2314159E7FFF7AAF8044628469B
S214002C80FFF752FEB2E700BF06000E00F4C70300CF
S214002C9002001E00050024000300200000400E4035
S214002CA0B80032007880002008B5FFF743FE0228FF
S214002CB00ABF024B4FF6FF70188808BD7C800020C4
S214002CC0014B1880704700BF7C800020013838B563
S214002CD00C46032864D8DFE800F002441A2FB1F54A
S214002CE0007F04D3324842F62501FFF7BFFC314A85
S214002CF0C4F30804D2F86838002BFBD12E4A136AB6
S214002D0023F4FF7323F001032343136238BD7F29A6
S214002D1004D9274842F63201FFF7A8FC254A04F0FA
S214002D207F01D2F86038002BFBD1234B1C6924F0BE
S214002D307F040C431C61E9E77F2904D91C4842F64E
S214002D404D01FFF793FC1B4A04F07F01D2F864386C
S214002D50002BFBD1184B9C6924F07F040C439C612C
S214002D60D4E7154DD5F890305B0704D5104842F6E9
S214002D705D01FFF77BFC6B6A23F0300343F0100322
S214002D806B62C4F3C311CB1C2A6B0C490F2B01EAF0
S214002D90020128BF0F23214341EA03712963B5E7E7
S214002DA0BDE83840024842F67701FFF75FBC00BF37
S214002DB0F4C703000020C84300400E4000F8FF0F91
S214002DC0022810B50C4604D0144842F68F01FFF7CF
S214002DD04DFC134B5B6A13F0300F1BD0202C16D023
S214002DE0302C17D0B4B10D4842F6AA01FFF73EFCCE
S214002DF00C4B0B4AD2F8901033EA0101FAD15B0271
S214002E004ABFD2F8A0000120C0F3802010BD4FF4C6
S214002E100003EEE74FF44003EBE700BFF4C7030000
S214002E2000400E40FF33E107022808B50CD129B157
S214002E30094B4FF48060C3F8A80059664AB1BDE854
S214002E4008400220FFF7BCBF044842F6E001FFF747
S214002E500DFC012008BD00BF00400E40F4C7030073
S214002E6004282DE9F04704460F4691461FD83D4BEF
S214002E703D4A13F800A03D4B13F80080F1B93C4BD7
S214002E8033F810301366012303FA08F8D2F89030AE
S214002E9013EA080FFAD1B9F1000F5AD00125324AC9
S214002EA005FA0AF5D2F890302B42FBD151E0BDE886
S214002EB0F047304842F27471FFF7D8BB2E4B022819
S214002EC033F8106047D1536A13F0300F43D12B4BC1
S214002ED0DB6B5A0504D4274842F28371FFF7C6FB22
S214002EE0214A536ADB0705D5536A23F0300343F0C3
S214002EF010035362224D1C4BA8441E664FEA8808F6
S214002F00D8F80030002BFBD0B9F1000F21D0554483
S214002F10AD002B68002BFCD0022C1AD1CFB1124F7B
S214002F20796A11F0010118D0012220212046FFF70E
S214002F307BFFD7F89C40012200210220FFF790FF7C
S214002F40C4F30A010220FFF7C1FE3E662B68002B81
S214002F50FCD0BDE8F0870027CCE72046FFF730FF1F
S214002F60E7E700BF8BC8030000400E4090C8030090
S214002F70A0C80300F4C7030096C8030000300E4044
S214002F808004F210112838B50C460FD000F00F0060
S214002F900138072800F2EB80DFE810F02400660016
S214002FA09A00E9007D00B400E900C200042912D1AD
S214002FB0FEF74AFF0546A8B10021284600F074FC3B
S214002FC0023C0A2C45D8DFE804F04A47313744442F
S214002FD044443D0F4D00052904D1664B1D68664BE1
S214002FE09D42E9D80025EBE703200524012211467F
S214002FF0FFF736FFFFF796FB0DB1FFF7A5FB5F4B1C
S2140030005C67FEF70FFF0446FEF7E2FEFFF730FBB5
S214003010FFF7A8FB01462046FFF7BAFB002D5DD15F
S21400302028460121BDE8384000F03EBC5448FFF772
S2140030301FFB02200446D9E75148FFF719FB01247D
S2140030400320D3E742F2E601BDE838404D48FFF7DB
S2140030500DBB42F2EB01F7E701200324C6E7002090
S2140030600424C3E70724C5E7062933D14548464D5F
S21400307042F22A11FFF7FAFA424842F23A11FFF7F3
S214003080F5FAFEF7A5FEFFF7F3FA404B0122C3F868
S2140030900826032321E006293D4DEDD0013C092CEE
S2140030A02BD801A353F824F001310000DF300000D4
S2140030B0ED300000FB300000FB30000083300000E5
S2140030C0FB300000FB300000FB300000D930000071
S2140030D0304DE3E72C4DE1E704232B6038BD012299
S2140030E011460020FFF7BCFE0223F6E70122114638
S2140030F01046FFF7B5FE0123EFE742F26511A3E79E
S2140031000023EAE7072904D0092906D042F2EF1186
S2140031109AE71A4B00221A67E0E7184B0122FAE7F3
S2140031204C1E072C1ED8DFE804F0201D1D161D1DA2
S2140031300F0403221149D1F85C3123F0300343EA2F
S2140031400213C1F85C31C9E7012211460420FFF7DB
S21400315087FE0122EEE7012211460220FFF780FEDD
S2140031600222E7E742F24D216EE70022E2E742F252
S214003170243169E770800020002D310100400E40A8
S2140031800148E801F4C7030080400E400010C84321
S21400319088400E4084400E4070B50D4614464AB135
S2140031A01B4B1B6813F4407F04D01A4842F2D551DB
S2140031B0FFF75CFAFEF748FE0121064600F074FBB6
S2140031C01CB3FFF7CFFA01463046FFF7E1FA1120AD
S2140031D0FFF7AAFBB6FBF0F0FFF74AFA012211460A
S2140031E00220FFF73DFE0C48416A002D14BF4FF049
S2140031F08052002221F04051002C14BF4FF00053A3
S21400320000230A431343436270BD002DE6D1EAE76C
S21400321000300E40F4C7030000400E4010B50446D0
S2140032201120FFF787FB042804D1274842F20F61DC
S214003230FFF71CFA012200210220FFF711FE637837
S2140032401BB9A3780BB9E37823B11F4842F24B6150
S214003250FFF70CFA237C012B04D11B4842F2526183
S214003260FFF704FA194A217C536A23F00103022966
S21400327008BF43F001035362154B2178C3F8A0142E
S214003280637AA18843EAC123D362136BA07A217ABA
S21400329003F07F630343E08843EAC02343EAC11395
S2140032A003310F2928BF0F2143EA01731363A37B61
S2140032B0617B1B0143EA0133E17B0B43217B43EA3D
S2140032C00143536310BD00BFF4C7030000400E4027
S2140032D00000C84370B505461120FFF72BFB0228F7
S2140032E004D10F4842F2CD61FFF7C0F90D4E0E4BE8
S2140032F0B26B2C7813401C436B7844EAC324AB783B
S21400330044EA0364EB7844EA0324B36BA34205D093
S214003310002101220846FFF7A3FDB46370BD00BF7D
S214003320F4C7030000400E4080E4FFF8EFF310807F
S21400333072B6704700B962B67047EFF3118060232B
S21400334083F31188704780F31188704738B5C5B28B
S214003350322D044604D9084840F21F31FFF786F99B
S214003360064B640905F01F0553F82400E840C043E7
S21400337000F0010038BD00BFD4C8030000E100E043
S21400338070B5054616460C4619B90B48EC21FFF7F2
S2140033906DF9286A296A2A6A2B6A102EC4E9000188
S2140033A0C4E9022307D1286A296A2A6A2B6AC4E973
S2140033B00401C4E9062370BD18C9030030B58B07A5
S2140033C089B00C4615460CD06946FFF7D9FF082D84
S2140033D00CBF10222022694620461AF029FD09B0AB
S2140033E030BD0091009909B0BDE83040FFF7C8BF76
S2140033F0034BD86B80F04000C0F38010704700BFCE
S21400340000300E4038B542EA0323B3F5007F054688
S2140034100C463ED019D8B3F5807F36D00AD883B391
S214003420012B21D01F4840F6EE11FFF71FF90022AE
S21400343013461FE040F201129342F3D11A4BD3F821
S21400344024321A0EC3F3074314E0B3F5407F24D0AA
S21400345040F20132934210D040F201229342E1D171
S214003460114BD3F8283202E00F4BD3F82432C3F3C3
S2140034700722DBB22B60226038BD0B4BD3F8283214
S214003480DFE7094BD3F81C32F1E7074BD3F81C32C1
S214003490D7E7054BD3F82032E9E7034BD3F82032C1
S2140034A0CFE700BF5EC903000081E00F08B5FFF755
S2140034B09FFF20B1024AD2F8C830002BFBD108BDCE
S2140034C00000C64308B5FFF793FF80B1FFF7EEFF95
S2140034D0074B19685A68C1F30121C2F301429142B1
S2140034E01A688CBF42F0100222F010021A6008BD63
S2140034F000300E40064B1B68DB0608D5054B1B69E3
S214003500C3F30443082B02BF034B044A1A607047F8
S21400351000300E4000400E4070800020C0EA2101BE
S21400352037B5FFF765FF38B1244B1B78C3F10202AD
S21400353010239340224A13612249234DD1F880413B
S21400354045F60E03C1F880312B6823F0AA03DB058D
S214003550DB0D0B66FFF7AAFF194B1B68D80604F0B5
S214003560010416D5D1F84031DA01FBD4174B1B689D
S2140035700B61174B1B78052B0BD1164B1868019067
S214003580FFF794FF0E4B01985968C1F30141FFF70E
S214003590FFF80F4B1978052902D01120FFF7F2FC2F
S2140035A02B68DB075EBF074B02221A661CB1054B71
S2140035B00022C3F8802103B030BD00BF7990002000
S2140035C000300E4000400E406890002074900020AE
S2140035D072900020708000201A4B022810B5D3F895
S2140035E030320C4612D0032813D0012814BFDBB2A9
S2140035F0C3F307231B0323F47042ECB95AB140F619
S2140036007D111148FFF732F8002010BDC3F30743C1
S214003610F0E71B0EEEE70D49CA6E22F47042134324
S214003620CB660120F1E70949D1F8EC2022F470427C
S2140036301343C1F8EC30F4E7002AF4D040F68911C1
S214003640DFE700BF0081E00F5EC9030000300E40D8
S21400365010B50B4C0B4BD4F890201A601120FFF7D6
S21400366069F9094B1870FFF721FF084B084A5B6899
S214003670C3F301431370074B22691A6010BD00BFE5
S21400368000400E40689000207290002000300E40EF
S2140036907990002074900020094942780B6823F442
S2140036A0407343EA0223022A0B6008D1054B5B6A8B
S2140036B09B0004D504484FF43B71FEF7D7BF704714
S2140036C000300E4000400E405EC903007047704751
S2140036D07047000010B5044608B1FFF7B9FFFFF7C2
S2140036E0F1FE164A136943F004031361FFF7EEFF79
S2140036F0FFF7EDFF124B1B68DB0618D5FFF716FE2B
S21400370038F04EFFFFF716FEFFF7E2FF02F0CAFCA6
S2140037107CB1FFF705FF0A4AD2F84C3123F000438C
S214003720C2F84C3144B9BDE81040FEF77BBB30BF51
S214003730EAE7FFF7DFFEEEE710BD00BF00ED00E0B2
S21400374000300E4038B5044608B1FFF781FFFFF79A
S214003750B9FE1B4B1B4DD3F8802145F60E01D20750
S214003760C3F8801148BF00224FF42071196648BF85
S214003770C3F88021144A136943F004031361FFF76A
S214003780A5FF2B68DB0615D5FFF7D0FD38F008FF40
S214003790FFF7D0FD02F086FC74B1FFF7C1FED5F846
S2140037A04C3123F00043C5F84C3144B9BDE83840ED
S2140037B0FEF738BB30BFEDE7FFF79CFEEFE738BDFE
S2140037C000400E4000300E4000ED00E0FFF740BF26
S2140037D0FFF7A6BE0378134A002B437870B514BFD4
S2140037E004260026002B8378946914BF0225002542
S2140037F0002B037924F03F0443EA0403C47814BF83
S21400380008210021012C08BF43F0010333432B435A
S2140038100B4393611368417923F4403343EA014331
S214003820136070BD00300E40F8B504460F46FFF733
S214003830DFFD78B3FFF73AFE174B5B68C3F301432F
S2140038409C4227D0154BD3F80061FEF7C1FA022C34
S21400385005460FD1124BC6F3042606FB00069E4211
S21400386004D9104840F21471FEF700FF02212846E2
S214003870FEF78EFFC4F1020210239340064A13613E
S2140038800FB1FFF713FE2CB921462846BDE8F840D5
S214003890FEF77EBFF8BD00BF00300E4000400E4071
S2140038A0002D31015EC9030013B50246FFF7A0FDE7
S2140038B0C8B152B90D4B0191D3F80041FEF788FA12
S2140038C0C4F30422019902FB0002094B1B7843B1A2
S2140038D0084B9A4205D8022002B0BDE81040FFF718
S2140038E0A3BF0020F8E702B010BD00BF00400E40A6
S2140038F078900020002D3101034B02781A700121C8
S2140039000020FFF7D1BF00BF78900020224B4AF678
S214003910E85210B5596B5A639A6FD207FCD41B6CE9
S21400392013F003031EBF1D4A0124C2F8B44A8342A3
S21400393004D110B9194BC3F8B40A10BD032B00D03C
S2140039409BB9431E012B10D8134A4FF40023D362B1
S214003950936FDB07FCD4136C23F0030343F00103DF
S21400396013640D4A536A1C03FCD50B4B9A6FD2079F
S214003970FCD41A6C22F0030202431A649A6F12F007
S2140039800102FBD10038054C18BF01200129C4F8FC
S214003990B40A08BF5A63D0E700300E400000C643A2
S2140039A02DE9F04FA0F5E16389B00024B3F5966FDA
S2140039B0CDE90244CDE90444CDE9064406468A46EC
S2140039C0934605D940F677315548FEF74FFEA3E0FB
S2140039D0B0F5E16F534B8CBF0122002249D1D3F8DA
S2140039E01832C3F30721DBB2079104934FF4167520
S2140039F04FF4966748E0BBF1000F0ED0D9F85C2074
S214003A0022F4FE4222F00202B6F5E16F42EA0122FB
S214003A1018BF02200243C9F85C20BAF1000F26D076
S214003A2020460021FFF7D8FD044610B940F6D431F1
S214003A30CAE701214046FFF7CFFD044610B940F61D
S214003A40DC31C1E7384A536EBD4238BF3D4623F4E9
S214003A50FF73E72D23F0010328BFE725B6F5E16FD6
S214003A6018BF43F0010343EA4503536654E00124BC
S214003A7052E0D3F81832190EC3F3074307910493A4
S214003A804FF496654FF4E167DFF89C90D9F84C4008
S214003A900192C4F30174234605A902A8FFF7B2FCFD
S214003AA0D9F8EC30019AC3F30128434606A903A8C7
S214003AB0FFF7A8FC049BF01B079FF91A4143B1FBD4
S214003AC0F5F299182CBF012300238F421ED3EBB9C1
S214003AD0069A039FD31B4343B3FBF5F3FF182CBF93
S214003AE001230023BA4211D383B9059B029AA3EBA4
S214003AF0020C00FB0CF0B0FBF5F555192CBF0120AD
S214003B000020AB4202D300283FF475AF044840F6CD
S214003B10C531FEF7ABFD0024204609B0BDE8F08FA6
S214003B205EC903000081E00F00300E40334A08B53E
S214003B30136FD16C11F0010F03F0060344D0002B75
S214003B4042D0132857D9143813288CBF10230823C3
S214003B502A49013BCA6C180322F47F4240EA032339
S214003B601343CB64264BCA6C1B88C2F3032228334C
S214003B70013202EB820003EB5303B3FBF0F3C86C95
S214003B80013B072B28BF072320F0EE6040EA0363C3
S214003B9043F48013CB641B4BB3F90030002B12DBCD
S214003BA003F12800C0F34E030344500800EB420222
S214003BB0B3FBF2F20B6D072A28BF072223F070032F
S214003BC043EA02120A6508BDD16C01F001011943EF
S214003BD004D109280FD90A380928B6E7D26CD207CB
S214003BE002D50BB92728B0E7074840F61A41FEF77A
S214003BF03DFD0023ACE70423AAE700BF00300E40DB
S214003C006E900020709000205EC903000C4BD3F825
S214003C10803910B5044633B9012804D9094840F65E
S214003C203841FEF723FD084A136F23F007032343AA
S214003C301367064BBDE810401888FFF777BF00BF34
S214003C400000C6435EC9030000300E406C900020A2
S214003C5038B55A4B02229A639B6B03F00F039342CC
S214003C60044607D0564840F61221FEF7FFFC002512
S214003C70284638BD0389C82B04D9514840F61C2174
S214003C80FEF7F4FCA28823899A4204D94C4840F6F1
S214003C901D21FEF7EBFCB4F90C30C82B04DD4848B8
S214003CA040F61E21FEF7E2FC6378012B55D1A3886F
S214003CB0C82B04D940F622214148FEF7D7FCE288FB
S214003CC042F210739A4204D93D4840F62F21FEF77F
S214003CD0CDFCE3884A2B48D9B3F5FA7F47D340F6A4
S214003CE0C312934294BF4FF000524FF040523349F4
S214003CF0B4F90C00CB6C23F0405323F001030028EA
S214003D00A8BF43F001031343CB64D1F8EC30A2887C
S214003D1043F44073C1F8EC302A4B1A80CB6E43F064
S214003D208073CB66284BD3F8800900B10420FFF7D8
S214003D306DFF264B21891980254BB4F90C20A088ED
S214003D401A80FFF7F3FEA37BA3B1012B22D01C48F9
S214003D5040F62E11FEF78AFC0FE0022BAFD1A388A7
S214003D600A2BACD940F62721A6E70022BFE74FF082
S214003D708052BCE7114B174A9A65012260881146AB
S214003D80FFF70EFE054640B90D4840F66621FEF7E1
S214003D906DFC6DE7094B104AEEE7084AD36B43F417
S214003DA08063D3636078FFF7B1FDA37AA3F12002A6
S214003DB053425341044AC2F8943759E700300E4044
S214003DC05EC903006C9000200000C6436E90002081
S214003DD07090002077402057372110B738B50D4631
S214003DE0044618B3012824D0022825D0032826D05C
S214003DF004280ED0052825D0831F012B09D90828B2
S214003E0023D0092823D00A2803D10723EB40DB0759
S214003E1004D4104840F22B41FEF728FC30200E4B0D
S214003E200121444301FA05F51D5138BD40F2FF3328
S214003E30ECE74FF6C073E9E740F6FF73E6E74FF4AA
S214003E407F43E3E74FF6FF73E0E70F23DEE74FF429
S214003E504043DBE718C703000CA0004638B50D4604
S214003E60044618B3012824D0022825D0032826D0DB
S214003E7004280ED0052825D0831F012B09D9082831
S214003E8023D0092823D00A2803D10723EB40DB07D9
S214003E9004D410484FF47F71FEF7E8FB30200E4B39
S214003EA00121444301FA05F51D5138BD40F2FF33A8
S214003EB0ECE74FF6C073E9E740F6FF73E6E74FF42A
S214003EC07F43E3E74FF6FF73E0E70F23DEE74FF4A9
S214003ED04043DBE718C703000CA0004470B5054656
S214003EE00E461446FFF722FA296881EA040202EA1F
S214003EF006044C402C60BDE87040FFF71BBA00007B
S214003F00F8B50D4616461F460446C0B3012839D0FC
S214003F1002283AD003283BD004280ED005283AD0F1
S214003F20831F012B09D9082838D0092838D00A2839
S214003F3003D10721E940CB0704D423484FF4B071DE
S214003F40FEF794FB26B12946204667B3FFF746FFE7
S214003F503023072D04FB03F34FF00F0126D8A800EB
S214003F6006FA00F2814019481844FFF7B7FF4EBB27
S214003F702946204617B3BDE8F840FFF72FBF40F2AA
S214003F80FF31D7E74FF6C071D4E740F6FF71D1E7AF
S214003F904FF47F41CEE74FF6FF71CBE70F21C9E71D
S214003FA04FF44041C6E7FFF759FFD1E7A5F10800F7
S214003FB0800006FA00F281400548D5E7BDE8F840E3
S214003FC0FFF74CBFF8BD00BFA1C9030004A0004026
S214003FD008A00040F8B506460C4615469ABB40F2C7
S214003FE00F11BDE8F8402F48FEF740BB2E4B9E420F
S214003FF001D12E483DE02B4840F22911FEF736FB52
S2140040003AE0032F42D02A4B3CE06FEAC505054450
S2140040102C44B4FBF0F4013C0AD5224840F275115A
S214004020FEF724FB1F484FF4BB71FEF71FFB02E0B0
S214004030B4F5007FF6D233689B0702D5002C08BF84
S21400404001243461F8BD03F00307036823F44073CA
S2140040500360FFF76BF9326882EA072303F44073C4
S21400406053403360FFF766F934B9124B9E42BDD118
S2140040701148FEF729FD044633689A07C1D5032F79
S21400408004D00E4B53F827309C4204D805484FF412
S214004090AF71FEF7EBFA0A4BD85D6843B5D140F234
S2140040A06F119EE7E5C9030000C4004000920400BB
S2140040B034CA030000C000400082040028CA03007F
S2140040C040CA030038B50A4B984204460D4608D04D
S2140040D003F58063984204D0064840F28F11FEF73D
S2140040E0C5FA04F1424404F580146401256038BD25
S2140040F000C00040E5C9030038B5124B984204469C
S2140041000D4608D003F58063984204D00E484FF45D
S214004110D271FEF7ABFA002323640C4BE3636A7894
S214004120630103F1844382F001025A60D5E901126B
S21400413020462B7BFFF74EFF29782046BDE8384007
S214004140FFF7C0BF00C00040E5C90300FFFF07003F
S2140041507D4B98422DE9F0410CD003F580639842E0
S21400416023D07A4840F2FB11FEF780FA6FF0030086
S214004170BDE8F081764B9968402405254FF0000E87
S2140041800327426B12F4C06F15D095050FD5FD229C
S2140041905A7009221A700022026493F9011001294C
S2140041A000D15A7093F90100E2E76A4BE3E7540541
S2140041B0EFD5FE22ECE71E78082E00F2C080DFE87E
S2140041C006F0051B3B45626D8F97B7004C880A8842
S2140041D0E1060AD5120A02F0060242F0F0020121B8
S2140041E01970C26241600120C2E702F0FE02A70712
S2140041F048BF42F00102F2E7160605D58022C263E8
S2140042004FF608721A8061E05206ECD54A88C463FD
S214004210D60604D502221A700B78C362E3E792072B
S21400422064D507221A701B7901EBC3010B89012B99
S214004230D9D108234360D6E71606DFD45206D2D576
S2140042404A88C463960751D51F709AE74C880A8837
S214004250E50643BF120A02F0060242F0F00202F040
S214004260FE02670709D51C7901EBC40142F0010282
S2140042700989012904BF082141600421197001231E
S2140042804360C262AFE71606B8D45606ABD54A8876
S214004290C46352072AD507221A70A4E71A795E88E3
S2140042A001EBC20CBCF80880B04511D80132D2B27E
S2140042B01A714E88A3F802E016F0040FC4D1F60770
S2140042C002D4012A7FF65DAF08221A700223B1E7F6
S2140042D0DCF80420711C5980925DC2620622DBE77E
S2140042E016068BD456067FF57EAFC4631D7048E76E
S2140042F094067FF578AF1A795C88C56901EBC20130
S2140043000A89A24281BF4968661C5E800D5559889D
S2140043108A42D9D90424012A446004D9013A914238
S21400432001D1082242601A78092A3FF434AF5AE7CE
S214004330D2057FF558AF4FF48072C26329E74FF677
S21400434009321A8027E700BF00C00040E5C9030015
S2140043507C9000208890002038B5264B9842044672
S2140043600D4641D003F5806398423AD0224840F289
S2140043705E31FEF77BF9002D39D11F4840F25F31E0
S214004380FEF774F91B4B9C4224D11C4BA268D00745
S21400439044BF202262606A88910701D5298931B31B
S2140043A0520701D52A8A12B34FF480721A6000228F
S2140043B01A719D60C0236360E368DB050FD4104B61
S2140043C0E363236C43F4FC6323642046BDE8384073
S2140043D0FFF7BEBE0B4B9C4209D10B4BD6E7E369F9
S2140043E0EAE70029F9D1C8E70029CED1C5E76FF082
S2140043F0030038BD00C00040E5C903007C900020E3
S214004400FFFF070000C400408890002010B5044657
S21400441018B91C489121FEF729F923781B0613F0DA
S214004420784F03D017489221FEF720F9E378072B40
S21400443003D91448A321FEF719F901214FF4AA4025
S214004440FEF7B4F9B4F8013022785BBA9BB243EABF
S21400445002630D4A136000231362D36253634FF066
S2140044600043D3664FF0FF339366084A4FF400715B
S214004470C2F88011E3785B01DBB282F80933116081
S21400448010BD00BF44CA030000200E4000E100E05B
S2140044902DE9F041C3B20126072805460C46904692
S2140044A006FA03F603DD3A48EC21FEF7DFF81CB9FE
S2140044B03748ED21FEF7DAF8236823F47C1323F05F
S2140044C00F031BB13248F221FEF7D0F8A37A1B0483
S2140044D013F47C0F04D02E4840F20911FEF7C6F8FC
S2140044E0E37A1B0513F07E6F04D0294840F20B11C7
S2140044F0FEF7BCF8237B5B0513F0FE5F04D0244870
S21400450040F20D11FEF7B2F8224F637BBE663020F4
S21400451000FB05702268C0F88020C0F88830E37A77
S214004520A27A1B0543EA0243227B43EA425328F061
S2140045300302C0F88430C0F89820FEF7FEFEFB6E3B
S2140045403343FB66237A13B17B6B33437B63637A17
S21400455013B1FB6A3343FB620E4B1A68237923B10F
S214004560DB431B0263F47F431A4063790BB142EAD4
S2140045700322A3790BB122EA0302E3791A43054B1F
S2140045801A60054A9662DE63BDE8F041FEF7DBBEC0
S21400459044CA030000200E4000200E4410B5C3B2EB
S2140045A00124072804FA03F404DD094840F29711B1
S2140045B0FEF75CF8FEF7C1FE064AD36E23EA040354
S2140045C0D366054B1C62BDE81040FEF7BCBE00BFBC
S2140045D044CA030000200E4000200E4410B50D4CC7
S2140045E063685B0304D50C4840F2F921FEF73EF8F9
S2140045F0636813F4403F04D0074840F2FA21FEF700
S21400460035F8064B41F671321A649A6822F00102B8
S2140046109A6010BD00300E40CBCA030000000E406A
S214004620034B9A6822F001029A6000221A647047CF
S21400463000000E40094A0A4BD969C90705D512B9C8
S2140046406FF002007047013AF6E7002AF8D0012220
S2140046501861DA60D86940F3800070478096980049
S21400466000000E4070B505460C4611B3134B1A6891
S214004670134B9A4204D8134840F2ED31FDF7F6FF8B
S214004680114A0023082055F8231091610F49D06085
S2140046900133D669F60705D511B96FF0020009E0B7
S2140046A00139F6E70029F8D0D169890703D49C427E
S2140046B0E9D1002070BD6FF00100FBE768800020A4
S2140046C03F420F00CBCA030000000E4080969800C1
S2140046D02DE9F8432F4B1F6C144610F0030F41F6DC
S2140046E0713280460E46BFB21A6404D02A4840F2A1
S2140046F03A41FDF7BBFFA20704D0274840F23D41F0
S214004700FDF7B4FF254D6B685B0304D5224840F2E5
S2140047104141FDF7ABFF6B6813F4403F04D01E48E1
S21400472040F24241FDF7A2FF1A4A9368A40843F0FC
S214004730010393600FD1184840F24A41FDF796FFF7
S2140047402046144B9A6822F001029A600FB10022AC
S2140047501A64BDE8F8834FF0000908EB890528467F
S214004760FFF768FF0028ECD1C5F30A05C5F500651C
S214004770AD08A4EB09018D4228BF0D4629463046F8
S214004780FFF770FF0028DCD1A9444C4506EB8506F0
S214004790E3D8D6E700000E40CBCA030000300E4038
S2140047A0304B70B541F671321C6C1A64C0F30A03C4
S2140047B00546A4B223B12C484FF49661FDF756FF88
S2140047C02A4E73685B0304D5274840F2B341FDF7D1
S2140047D04DFF736813F4403F04D0234840F2B441C1
S2140047E0FDF744FF1F4B9A6842F001029A600122CF
S2140047F01D61DA60DA69500709D59A6822F001026D
S2140048009A600CB100221A644FF0FF3026E00222B4
S214004810DA60174AD969C90700D56AB9D86910F0AD
S21400482002000BD09A6822F001029A600CB10022B6
S2140048301A646FF0010011E0013AEBE742B999689B
S21400484021F00101996004B11A646FF0020005E0DE
S2140048509A6822F001029A600CB1186470BD204676
S214004860FCE700BF00000E40CBCA030000300E403D
S21400487080969800FFF72CBF022838B504460D46F0
S21400488003D911484C21FDF7F1FE6B791F2B03D994
S2140048900D484F21FDF7EAFEAB786A789B0143EAA4
S2140048A082032A781343EA7843EA02132A7943EA12
S2140048B0C2236A7943EA0233AA79043443EA4243BC
S2140048C02401024A135138BD0ECB030000200440D9
S2140048D0014B1860704700BF00008442427801799F
S2140048E00378002A827870B514BF04260026002AB2
S2140048F0C27814BF10250025002A42794FEA0232FA
S21400490042EA012242EA0302837914BF20240024EB
S214004910002BC37942EA034343EA0603027A43EADA
S214004920050314BF4FF4004100212343002A14BF9F
S2140049304FF4003200220B431343014A136070BD4C
S2140049400020044010B5044618B910485221FDF75F
S2140049508DFE0F4AD2F8E430D2F8E0109B0003F048
S2140049603C03C1F381110B43A370D2F8E03003F08F
S2140049703F036370D2F8E830D2F8EC2003F0F0037F
S214004980C2F303121343237010BD00BF52CB0300C3
S21400499000FF0FE0094B98420DD003F58063984264
S2140049A009D003F5E053984205D003F58063C31A97
S2140049B05842584170470120704700BF00800140B0
S2140049C02DE9F84F05460C46FFF7E4FF18B92B48CB
S2140049D0A521FDF74BFE217809B902236B606078AC
S2140049E000236B620028E278607AA37894F808B017
S2140049F094F806A094F8079014BF4FF040084FF0C4
S214004A00000812040028A07A42EA036314BF4FF09D
S214004A10800E4FF0000E43EA0B030028E07A43EACC
S214004A208A2314BF4FF0200C4FF0000C43EA0923F2
S214004A300028207B43EA080314BF1027002743EA18
S214004A400E0300282079647943EA0C0314BF082675
S214004A5000263B43002814BF4FF400500020334389
S214004A60002C14BF4FF080540024034323432B60D4
S214004A7009B101236B60BDE8F88F00BF98CB030037
S214004A80F8B505460C461646FFF784FF18B92048C9
S214004A90F521FDF7EBFD032C03D91D48F621FDF7A4
S214004AA0E5FD737832781B0643EA8263B2791343D6
S214004AB0B27843EA0243F27843EA0233327943EAB1
S214004AC08223727943EA0223F279002A327A14BFEB
S214004AD04FF080470027002A727A14BF4FF000502C
S214004AE00020002AB27AF67A43EA067343EA0703FE
S214004AF014BF102100210343002A04F1060414BF4A
S214004B00042200220B43240113432B51F8BD00BF9F
S214004B1098CB03002DE9F04180460E461F46154609
S214004B2022B931484FF4A171FDF7A0FD1EB92F48F8
S214004B30FDF7CAFF0646402F2AD009D8A7B1202F76
S214004B401CD0BDE8F041284840F28911FDF78EBD23
S214004B50602FF6D1B5EB960F04D9234840F28311A7
S214004B60FDF784FD04241DE0B5EB161F04D91E488E
S214004B704FF4BA71FDF77AFD102413E0B5EBD60FAB
S214004B8004D9194840F27911FDF770FD082409E0B0
S214004B900624B6FBF4F3AB4204D213484FF4BF71BD
S214004BA0FDF764FD6C43610801EB4616B6FBF4F4B2
S214004BB00F4E203CB6EBC40F4FEAC40504D20A4899
S214004BC04FF4D071FDF752FDD8F8003023F06003A3
S214004BD0C8F80030D8F8003035401F43C8F80070D9
S214004BE0C8F81450BDE8F081DDCB03004041050055
S214004BF0F8FF7F0070B506460C46154622B90D48EC
S214004C004FF42271FDF732FD1CB90B48FDF75CFF2F
S214004C1004460A4B6D00013CB4FBF5F413EA04238A
S214004C204FEA042504D0034840F2A521FDF71EFDF7
S214004C30756170BDDDCB030040410500070080FFB5
S214004C4038B50E4B984204460D4610D003F58063E7
S214004C5098420CD003F58063984208D003F5806331
S214004C60984204D0064840F2BE21FDF7FFFCEB4315
S214004C705B0003F00A03E360E56038BD0000014016
S214004C80DDCB030038B51E4B1E4D984204460ED0B1
S214004C90A8420CD003F50063984208D003F5806361
S214004CA0984204D0184840F23441FDF7DFFC40F645
S214004CB0AA63E36041F20502002323606260134AA0
S214004CC0A3606361E364A26423666367A367E36724
S214004CD00B4B9C4209D0AC4207D003F500639C42C4
S214004CE003D003F580639C4201D100232365002393
S214004CF0AC42A36502D0064A944200D1E36538BDB3
S214004D000000014000040140DDCB0300F9FF010074
S214004D10000C014038B5294B984204460D4610D089
S214004D2003F5806398420CD003F58063984208D060
S214004D3003F58063984204D0214840F2EF21FDF746
S214004D4095FC2046FFF79EFFAB7C1BB1236843F023
S214004D5080432360EB7C1BB12B7D43F08003A3656F
S214004D602A8A6B7B1343EA89134363602B7BD5E95E
S214004D7001122046FFF7CEFE6B7D1BB1236843F47D
S214004D8080332360AB7D1BB1236843F4004323606C
S214004D90EB7D2A7E1B07120502F4E00203F0E043D7
S214004DA013432366636F23F030036367626F6B7E83
S214004DB0134363672B78E36038BD00BF00000140F3
S214004DC0DDCB030038B52D4B984204460D4610D077
S214004DD003F5806398420CD003F58063984208D0B0
S214004DE003F58063984204D0254840F25B31FDF716
S214004DF03DFC2046FFF746FFA97B2A8A2368002948
S214004E0042F0010214BF4FF48061002113430B43AC
S214004E102A7D23602368002A14BF4FF00052002228
S214004E2013432360AB7C1BB1EB7C43F08003A3658C
S214004E302B7B43F480536360D5E901122046FFF7CD
S214004E40D9FE6B7B0BB11023E3606B7D1BB123682F
S214004E5043F480332360AB7D1BB1236843F40043E7
S214004E602360EB7D2A7E1B07120503F0E04302F465
S214004E70E002134323662B78E36038BD0000014050
S214004E80DDCB03001B4B984270B505460C4608D098
S214004E9003F50063984204D017484FF47B71FDF782
S214004EA0E5FB00232146267823702846FFF78AFF75
S214004EB094F82020A38B94F821001343A27F002AA5
S214004EC0E27F14BF10210021002A14BF082200220E
S214004ED0002814BF0220002003430B43134343F073
S214004EE00103EB652EB131462846BDE87040FFF75A
S214004EF0A7BE70BD00040140DDCB030003691B069E
S214004F00FCD5C069C0B2704703695A06FCD5416338
S214004F1003699B06FCD5C069C0B2704703695B068F
S214004F20FCD541637047000038B5044631F099FC63
S214004F300FCC044D0FC594E80F0085E80F00002045
S214004F4038BD00BF9490002047F6FF739A42F0B534
S214004F5069D0022969D8364B03EBC105CF00A87883
S214004F6013F83110012838BF01200129044613D157
S214004F70EB781B1A0020984202D3E018C0B2F0BDAE
S214004F80191AA3EB51016E6836F911609642CCBF30
S214004F9001F1FF330846EEE768680028EFD0B0F965
S214004FA00010914204DBB0F902109142B8BF1146DE
S214004FB082883B44FF2A08BFB0F906205F7807BF07
S214004FC0B0F9086001250025C82207F1FF3318BF95
S214004FD02826521A92FBF6F22A44934228BF13461A
S214004FE000EBC3054FF47A7EAE68EA8811FB0262D6
S214004FF01E46013322EAE2729F4202F5FA72AC467E
S214005000B2FBFEF205D9BCF80CC0944505F10805C4
S214005010EAD200EBC6008088904228BF1046A04225
S21400502038BF2046AAE7FF20A9E70020A7E700BF71
S214005030949000200229F0B55FD8314B13F8310068
S214005040012816D103EBC1018C78C878012C2346C1
S21400505038BF0123904294BFC3EB0003C3EB0203A7
S214005060DBB2001B4A688342C8BF002332F9130034
S214005070F0BD002A3FD003EBC1014B68002B3CD0AB
S2140050808878904202D3B3F90200F1E7CC78B3F9FE
S21400509000009442ECD94C789988A1F1FF06013CB7
S2140050A0714203F10405E4B2714103F10C071FFAE3
S2140050B082FCCEB2B44216D805EBC1014FF47A7525
S2140050C0B1F9024049686A43521A04EBD47102EB04
S2140050D0610292FBF4F29042CADBB3F902009042FE
S2140050E0C6DC10B2C4E737F831E0E64501F1010648
S2140050F0E2D33146DDE70348BAE70348B8E700BF26
S214005100949000200CFEFFFF0080FFFF08B50448C7
S214005110FFF70AFFBDE80840012031F0A4BB00BF3E
S21400512024CC03007FB5094B6A4603F110061546EA
S21400513018685968144603C40833B3422246F7D1A8
S2140051402846FEF785FD002004B070BDDCCC0300C9
S21400515013B502230024684600948DF804408DF8A9
S2140051600530FEF737FB204602B010BD70B5164B73
S21400517086B001AA03F11006154618685968144649
S21400518003C40833B3422246F7D11B8823800F4B53
S214005190D3F8B42012030ED4D3F8B830C3F3080300
S2140051A00B48ADF80A30FCF755FE2846FEF736F8F1
S2140051B0002006B070BD074B1B884FF6FF72934267
S2140051C008BF4FF4A673EBE7ECCC03000081E00FBA
S2140051D000F049020001E00F07B5084B186801907F
S2140051E0202301A88DF80430FEF774F86420FDF73C
S2140051F067FD002003B05DF804FB00BFFECC030093
S21400520010B50C480C4C6FF00402A02112F0800F71
S214005210D3B21BBF03F00F03043BA3181B1802F105
S21400522001020CBF83F800131976332AEED1002052
S21400523010BD00BF00ED00E000E100E010B5044640
S214005240FEF774F8024B1C60FEF774F8002010BDE1
S214005250B490002010B5FEF769F8034B1C68FEF703
S21400526069F8204610BD00BFB490002007B530B9DD
S214005270CDE90012FFF7EEFFDDE9001230B143681A
S21400528023B1006803B05DF804EB1847232003B091
S2140052905DF804FB30B51C4685B058B9CDE9001260
S2140052A0FFF7D8FFDDE9001204B903AC20B92320CC
S2140052B005B030BD03B903AC8568002DF7D0234692
S2140052C00068A847F4E707B501228DF807100DF12E
S2140052D00701FFF7CBFF03B05DF804FB00230122B4
S2140052E0FFF7D8BF00207047FEE74FF400534B602F
S2140052F00020704701207047012070474FF0FF30B4
S21400530070470020704707B5002001AB0190FFF7FB
S214005310C1FF0198002808BF4FF0FF3003B05DF8CA
S21400532004FB000010B500201446FFF79FFF18B1DD
S2140053300248BF21FDF79AF9204610BD02CD0300B2
S21400534090F82A3001223BB190F82E30022B03D180
S21400535080F82E20184670471346FBE780F8241086
S214005360704790F82400704790F82B0070470000B4
S214005370002809DB4309012200F01F0002FA00F0B2
S2140053806033024A42F82300704700BF00E100E0A5
S214005390F8B590F82B3004460D4681B173B990F8F5
S2140053A02C60FDF7C3FF01210546304600F00AFCDD
S2140053B02846FDF7BFFF012384F82B30F8BD002BED
S2140053C0FCD090F82C70FDF7B1FF2946064638460B
S2140053D000F0F8FB3046FDF7ADFF84F82B50EDE704
S2140053E070B504460568FFF735FF844202D10020F9
S2140053F0FFF724FF95F92800FFF7BAFF95F9283044
S214005400002B0DDB5A09012103F01F0301FA03F3F9
S2140054102032144941F82230BFF34F8FBFF36F8F0D
S21400542095F92900FFF7A4FF95F92930002B0DDB2D
S2140054305A09012103F01F0301FA03F32032094938
S21400544041F82230BFF34F8FBFF36F8F0023C4E9BC
S2140054500033C4E90433A3602846EB68BDE8704017
S214005460184700BF00E100E02DE9F0470446164665
S21400547090F824800D46FDF760FF94F82A20034636
S2140054809AB1FDF760FF94F82D90FDF74FFF0121CC
S2140054900746484600F096FB3846FDF74BFFFDF7FB
S2140054A04CFF0022034684F82A201846FDF74BFFDF
S2140054B02E44B8F1000F23D1AE4205D163682046D2
S2140054C00121BDE8F047184794F82630002BF3D0AA
S2140054D0236815F8011B204698470028ECD0BDE845
S2140054E0F08794F826305BB12B780A2B03D123681B
S2140054F00D2120469847236815F8011B204698473B
S214005500AE42EED1DAE72DE9F7434FF00009044644
S21400551090461E46C3F800904F1E3368434505D29A
S214005520FDF70BFFA269C2B9FDF70DFF94F827300F
S2140055305BB9112301220DF1070120468DF80730D3
S214005540FFF792FF012384F827303368002B0CBF47
S2140055501B20002003B0BDE8F083E16922698A5C65
S21400556007F8012F2569226A01359542A26908BF0E
S2140055704D46013AA2612561FDF7E5FEA368204687
S2140055809847336801333360C7E708B5FFF76CFF09
S214005590002008BDF8B51F46536806460C4615465B
S2140055A0002B6BD09368002B6AD030220021204657
S2140055B018F066FC6B68E361AB6823622B7B84F8AB
S2140055C02430AB7B84F8253040F20113E384069B3D
S2140055D06360079BA360089B2760E3602B7884F8D2
S2140055E028306B7884F82930264B7360264BB360DE
S2140055F0264B3361264B7361264BF360264B336292
S2140056000127264B346084F82E70B361244BF36177
S2140056109DF8283084F82D309DF8243084F82C30FE
S214005620002384F82B302046697B84F82A70FFF725
S214005630AFFE95F90100FFF79BFE95F90130002BB0
S21400564006DB5A0903F01F039F40164B43F82270EF
S21400565095F90000FFF78CFE95F90030002B08DB6B
S2140056605909012203F01F0302FA03F30D4A42F818
S21400567021303046FFF7E2FD0020F8BD2220FCE78F
S2140056802120FAE78B550000075500005D53000007
S21400569063530000E15300004153000091530000A3
S2140056A06953000000E100E010B50446FDF745FE32
S2140056B0A269236A9A4203D2FDF745FE012010BD77
S2140056C0FDF741FE0020FAE773B504460D46FDF7E8
S2140056D034FE94F8253006466BB1132D07D100230F
S2140056E084F8263002B0BDE87040FDF72CBE112DC0
S2140056F001D10123F4E7A269236A9A4204D315482C
S2140057004FF4B271FCF7B2FF6369E269D554A2693F
S21400571063690132A261226A01339342636104BF66
S214005720002363613046FDF70EFE0423A26984F869
S2140057302E30236A9A420BD1132301220DF1070162
S21400574020468DF80730FFF78FFE002384F82730B9
S21400575002B070BD64CD030090F82A3070B50446E0
S214005760E3B9436823B90E4840F28711FCF77EFF81
S2140057700021636820469847012384F82A3094F86D
S2140057802D60FDF7D3FD00210546304600F01AFADD
S2140057902846FDF7CFFD022384F82E3070BD00BFEB
S2140057A064CD0300026BD36C43F00403D3647047EC
S2140057B0026B10B5044613695906FCD500231A4639
S2140057C094F8391094F83800FEF79AFB00231A462E
S2140057D094F83B1094F83A00FEF792FB94F84030A9
S2140057E0DA0707D5002394F83D1094F83C001A46D3
S2140057F0FEF786FB94F840309B0707D5002394F805
S2140058003F1094F83E001A46FEF77AFB206B002104
S214005810FFF716FA606B0021FCF7C8FF002010BDEA
S21400582008B5006BFFF77AFB002008BD036BDA6C47
S21400583019B142F00102DA64704722F00102DA641C
S21400584001229A64704700002DE9F04186B01C469C
S214005850524B0C9D0293524B01930126514B0093E1
S214005860CDE90366504B90460A462946FFF792FE5E
S2140058700746002856D123682B6363686B63637AF8
S21400588085F83930237A85F83830E37A85F83B3066
S214005890A37A85F83A30637B85F83D30237B85F81C
S2140058A03C30E37B85F83F30A37B85F83E303F48AD
S2140058B03146FCF77BFF3E483146FCF777FF617ABE
